{
  "_format": "hh-sol-artifact-1",
  "contractName": "ThreatIntelligence",
  "sourceName": "contracts/ThreatIntelligence.sol",
  "abi": [
    {
      "inputs": [],
      "stateMutability": "nonpayable",
      "type": "constructor"
    },
    {
      "anonymous": false,
      "inputs": [
        {
          "indexed": true,
          "internalType": "address",
          "name": "org",
          "type": "address"
        },
        {
          "indexed": false,
          "internalType": "string",
          "name": "name",
          "type": "string"
        }
      ],
      "name": "OrganizationRegistered",
      "type": "event"
    },
    {
      "anonymous": false,
      "inputs": [
        {
          "indexed": true,
          "internalType": "uint256",
          "name": "index",
          "type": "uint256"
        },
        {
          "indexed": false,
          "internalType": "string",
          "name": "reportHash",
          "type": "string"
        },
        {
          "indexed": false,
          "internalType": "string",
          "name": "ipfsHash",
          "type": "string"
        },
        {
          "indexed": false,
          "internalType": "string",
          "name": "organization",
          "type": "string"
        },
        {
          "indexed": false,
          "internalType": "uint256",
          "name": "timestamp",
          "type": "uint256"
        }
      ],
      "name": "ThreatReportAdded",
      "type": "event"
    },
    {
      "inputs": [
        {
          "internalType": "string",
          "name": "reportHash",
          "type": "string"
        },
        {
          "internalType": "string",
          "name": "ipfsHash",
          "type": "string"
        },
        {
          "internalType": "string",
          "name": "organization",
          "type": "string"
        }
      ],
      "name": "addThreatReport",
      "outputs": [
        {
          "internalType": "uint256",
          "name": "",
          "type": "uint256"
        }
      ],
      "stateMutability": "nonpayable",
      "type": "function"
    },
    {
      "inputs": [],
      "name": "admin",
      "outputs": [
        {
          "internalType": "address",
          "name": "",
          "type": "address"
        }
      ],
      "stateMutability": "view",
      "type": "function"
    },
    {
      "inputs": [
        {
          "internalType": "uint256",
          "name": "index",
          "type": "uint256"
        }
      ],
      "name": "getReportByIndex",
      "outputs": [
        {
          "components": [
            {
              "internalType": "string",
              "name": "reportHash",
              "type": "string"
            },
            {
              "internalType": "string",
              "name": "ipfsHash",
              "type": "string"
            },
            {
              "internalType": "string",
              "name": "organization",
              "type": "string"
            },
            {
              "internalType": "address",
              "name": "submitter",
              "type": "address"
            },
            {
              "internalType": "uint256",
              "name": "timestamp",
              "type": "uint256"
            },
            {
              "internalType": "bool",
              "name": "exists",
              "type": "bool"
            }
          ],
          "internalType": "struct ThreatIntelligence.Report",
          "name": "",
          "type": "tuple"
        }
      ],
      "stateMutability": "view",
      "type": "function"
    },
    {
      "inputs": [],
      "name": "getReportCount",
      "outputs": [
        {
          "internalType": "uint256",
          "name": "",
          "type": "uint256"
        }
      ],
      "stateMutability": "view",
      "type": "function"
    },
    {
      "inputs": [],
      "name": "getThreatReports",
      "outputs": [
        {
          "components": [
            {
              "internalType": "string",
              "name": "reportHash",
              "type": "string"
            },
            {
              "internalType": "string",
              "name": "ipfsHash",
              "type": "string"
            },
            {
              "internalType": "string",
              "name": "organization",
              "type": "string"
            },
            {
              "internalType": "address",
              "name": "submitter",
              "type": "address"
            },
            {
              "internalType": "uint256",
              "name": "timestamp",
              "type": "uint256"
            },
            {
              "internalType": "bool",
              "name": "exists",
              "type": "bool"
            }
          ],
          "internalType": "struct ThreatIntelligence.Report[]",
          "name": "",
          "type": "tuple[]"
        }
      ],
      "stateMutability": "view",
      "type": "function"
    },
    {
      "inputs": [
        {
          "internalType": "address",
          "name": "",
          "type": "address"
        }
      ],
      "name": "organizationNames",
      "outputs": [
        {
          "internalType": "string",
          "name": "",
          "type": "string"
        }
      ],
      "stateMutability": "view",
      "type": "function"
    },
    {
      "inputs": [
        {
          "internalType": "address",
          "name": "orgAddress",
          "type": "address"
        },
        {
          "internalType": "string",
          "name": "name",
          "type": "string"
        }
      ],
      "name": "registerOrganization",
      "outputs": [],
      "stateMutability": "nonpayable",
      "type": "function"
    },
    {
      "inputs": [
        {
          "internalType": "address",
          "name": "",
          "type": "address"
        }
      ],
      "name": "registeredOrganizations",
      "outputs": [
        {
          "internalType": "bool",
          "name": "",
          "type": "bool"
        }
      ],
      "stateMutability": "view",
      "type": "function"
    },
    {
      "inputs": [
        {
          "internalType": "string",
          "name": "reportHash",
          "type": "string"
        }
      ],
      "name": "verifyReport",
      "outputs": [
        {
          "internalType": "bool",
          "name": "found",
          "type": "bool"
        },
        {
          "internalType": "string",
          "name": "ipfsHash",
          "type": "string"
        },
        {
          "internalType": "string",
          "name": "organization",
          "type": "string"
        },
        {
          "internalType": "uint256",
          "name": "timestamp",
          "type": "uint256"
        }
      ],
      "stateMutability": "view",
      "type": "function"
    }
  ],
  "bytecode": "0x608060405234801561001057600080fd5b50336000806101000a81548173ffffffffffffffffffffffffffffffffffffffff021916908373ffffffffffffffffffffffffffffffffffffffff160217905550612077806100606000396000f3fe608060405234801561001057600080fd5b50600436106100935760003560e01c8063d3d2a47511610066578063d3d2a47514610120578063d51a7afe14610150578063edb2c20014610180578063f851a440146101b0578063f92df032146101ce57610093565b80630c0939b3146100985780632f54d929146100b6578063c9128b09146100e6578063cad9642b14610102575b600080fd5b6100a0610201565b6040516100ad919061135f565b60405180910390f35b6100d060048036038101906100cb91906114ca565b610491565b6040516100dd9190611580565b60405180910390f35b61010060048036038101906100fb91906115c7565b6107f1565b005b61010a610a03565b6040516101179190611580565b60405180910390f35b61013a60048036038101906101359190611623565b610a10565b604051610147919061165f565b60405180910390f35b61016a600480360381019061016591906116a6565b610a30565b604051610177919061176a565b60405180910390f35b61019a60048036038101906101959190611623565b610ce4565b6040516101a791906117d6565b60405180910390f35b6101b8610d84565b6040516101c59190611807565b60405180910390f35b6101e860048036038101906101e39190611822565b610da8565b6040516101f8949392919061186b565b60405180910390f35b60606001805480602002602001604051908101604052809291908181526020016000905b8282101561048857838290600052602060002090600602016040518060c0016040529081600082018054610258906118ed565b80601f0160208091040260200160405190810160405280929190818152602001828054610284906118ed565b80156102d15780601f106102a6576101008083540402835291602001916102d1565b820191906000526020600020905b8154815290600101906020018083116102b457829003601f168201915b505050505081526020016001820180546102ea906118ed565b80601f0160208091040260200160405190810160405280929190818152602001828054610316906118ed565b80156103635780601f1061033857610100808354040283529160200191610363565b820191906000526020600020905b81548152906001019060200180831161034657829003601f168201915b5050505050815260200160028201805461037c906118ed565b80601f01602080910402602001604051908101604052809291908181526020018280546103a8906118ed565b80156103f55780601f106103ca576101008083540402835291602001916103f5565b820191906000526020600020905b8154815290600101906020018083116103d857829003601f168201915b505050505081526020016003820160009054906101000a900473ffffffffffffffffffffffffffffffffffffffff1673ffffffffffffffffffffffffffffffffffffffff1673ffffffffffffffffffffffffffffffffffffffff168152602001600482015481526020016005820160009054906101000a900460ff16151515158152505081526020019060010190610225565b50505050905090565b6000600460003373ffffffffffffffffffffffffffffffffffffffff1673ffffffffffffffffffffffffffffffffffffffff16815260200190815260200160002060009054906101000a900460ff1661051f576040517f08c379a000000000000000000000000000000000000000000000000000000000815260040161051690611990565b60405180910390fd5b6000845111610563576040517f08c379a000000000000000000000000000000000000000000000000000000000815260040161055a906119fc565b60405180910390fd5b60008351116105a7576040517f08c379a000000000000000000000000000000000000000000000000000000000815260040161059e90611a68565b60405180910390fd5b6003846040516105b79190611ac4565b908152602001604051809103902060009054906101000a900460ff1615610613576040517f08c379a000000000000000000000000000000000000000000000000000000000815260040161060a90611b4d565b60405180910390fd5b60016040518060c001604052808681526020018581526020018481526020013373ffffffffffffffffffffffffffffffffffffffff16815260200142815260200160011515815250908060018154018082558091505060019003906000526020600020906006020160009091909190915060008201518160000190816106999190611d19565b5060208201518160010190816106af9190611d19565b5060408201518160020190816106c59190611d19565b5060608201518160030160006101000a81548173ffffffffffffffffffffffffffffffffffffffff021916908373ffffffffffffffffffffffffffffffffffffffff1602179055506080820151816004015560a08201518160050160006101000a81548160ff021916908315150217905550505060006001808054905061074c9190611e1a565b90508060028660405161075f9190611ac4565b90815260200160405180910390208190555060016003866040516107839190611ac4565b908152602001604051809103902060006101000a81548160ff021916908315150217905550807f28467840a0966d15e74e287f53bdc264a9eca7b6fc094dbd5a03b2cbe470fd6f868686426040516107de9493929190611e4e565b60405180910390a2809150509392505050565b60008054906101000a900473ffffffffffffffffffffffffffffffffffffffff1673ffffffffffffffffffffffffffffffffffffffff163373ffffffffffffffffffffffffffffffffffffffff161461087f576040517f08c379a000000000000000000000000000000000000000000000000000000000815260040161087690611f1a565b60405180910390fd5b600460008373ffffffffffffffffffffffffffffffffffffffff1673ffffffffffffffffffffffffffffffffffffffff16815260200190815260200160002060009054906101000a900460ff161561090c576040517f08c379a000000000000000000000000000000000000000000000000000000000815260040161090390611f86565b60405180910390fd5b6001600460008473ffffffffffffffffffffffffffffffffffffffff1673ffffffffffffffffffffffffffffffffffffffff16815260200190815260200160002060006101000a81548160ff02191690831515021790555080600560008473ffffffffffffffffffffffffffffffffffffffff1673ffffffffffffffffffffffffffffffffffffffff16815260200190815260200160002090816109b09190611d19565b508173ffffffffffffffffffffffffffffffffffffffff167f783e607e94efcb9adce3489c806008ddc378d784ae22a1f801458720054325a2826040516109f791906117d6565b60405180910390a25050565b6000600180549050905090565b60046020528060005260406000206000915054906101000a900460ff1681565b610a386110b3565b6001805490508210610a7f576040517f08c379a0000000000000000000000000000000000000000000000000000000008152600401610a7690611ff2565b60405180910390fd5b60018281548110610a9357610a92612012565b5b90600052602060002090600602016040518060c0016040529081600082018054610abc906118ed565b80601f0160208091040260200160405190810160405280929190818152602001828054610ae8906118ed565b8015610b355780601f10610b0a57610100808354040283529160200191610b35565b820191906000526020600020905b815481529060010190602001808311610b1857829003601f168201915b50505050508152602001600182018054610b4e906118ed565b80601f0160208091040260200160405190810160405280929190818152602001828054610b7a906118ed565b8015610bc75780601f10610b9c57610100808354040283529160200191610bc7565b820191906000526020600020905b815481529060010190602001808311610baa57829003601f168201915b50505050508152602001600282018054610be0906118ed565b80601f0160208091040260200160405190810160405280929190818152602001828054610c0c906118ed565b8015610c595780601f10610c2e57610100808354040283529160200191610c59565b820191906000526020600020905b815481529060010190602001808311610c3c57829003601f168201915b505050505081526020016003820160009054906101000a900473ffffffffffffffffffffffffffffffffffffffff1673ffffffffffffffffffffffffffffffffffffffff1673ffffffffffffffffffffffffffffffffffffffff168152602001600482015481526020016005820160009054906101000a900460ff1615151515815250509050919050565b60056020528060005260406000206000915090508054610d03906118ed565b80601f0160208091040260200160405190810160405280929190818152602001828054610d2f906118ed565b8015610d7c5780601f10610d5157610100808354040283529160200191610d7c565b820191906000526020600020905b815481529060010190602001808311610d5f57829003601f168201915b505050505081565b60008054906101000a900473ffffffffffffffffffffffffffffffffffffffff1681565b60006060806000600385604051610dbf9190611ac4565b908152602001604051809103902060009054906101000a900460ff16610e11576000806040518060200160405280600081525090604051806020016040528060008152509093509350935093506110ac565b60006001600287604051610e259190611ac4565b90815260200160405180910390205481548110610e4557610e44612012565b5b90600052602060002090600602016040518060c0016040529081600082018054610e6e906118ed565b80601f0160208091040260200160405190810160405280929190818152602001828054610e9a906118ed565b8015610ee75780601f10610ebc57610100808354040283529160200191610ee7565b820191906000526020600020905b815481529060010190602001808311610eca57829003601f168201915b50505050508152602001600182018054610f00906118ed565b80601f0160208091040260200160405190810160405280929190818152602001828054610f2c906118ed565b8015610f795780601f10610f4e57610100808354040283529160200191610f79565b820191906000526020600020905b815481529060010190602001808311610f5c57829003601f168201915b50505050508152602001600282018054610f92906118ed565b80601f0160208091040260200160405190810160405280929190818152602001828054610fbe906118ed565b801561100b5780601f10610fe05761010080835404028352916020019161100b565b820191906000526020600020905b815481529060010190602001808311610fee57829003601f168201915b505050505081526020016003820160009054906101000a900473ffffffffffffffffffffffffffffffffffffffff1673ffffffffffffffffffffffffffffffffffffffff1673ffffffffffffffffffffffffffffffffffffffff168152602001600482015481526020016005820160009054906101000a900460ff161515151581525050905060018160200151826040015183608001519450945094509450505b9193509193565b6040518060c00160405280606081526020016060815260200160608152602001600073ffffffffffffffffffffffffffffffffffffffff168152602001600081526020016000151581525090565b600081519050919050565b600082825260208201905092915050565b6000819050602082019050919050565b600081519050919050565b600082825260208201905092915050565b60005b8381101561116757808201518184015260208101905061114c565b60008484015250505050565b6000601f19601f8301169050919050565b600061118f8261112d565b6111998185611138565b93506111a9818560208601611149565b6111b281611173565b840191505092915050565b600073ffffffffffffffffffffffffffffffffffffffff82169050919050565b60006111e8826111bd565b9050919050565b6111f8816111dd565b82525050565b6000819050919050565b611211816111fe565b82525050565b60008115159050919050565b61122c81611217565b82525050565b600060c083016000830151848203600086015261124f8282611184565b915050602083015184820360208601526112698282611184565b915050604083015184820360408601526112838282611184565b915050606083015161129860608601826111ef565b5060808301516112ab6080860182611208565b5060a08301516112be60a0860182611223565b508091505092915050565b60006112d58383611232565b905092915050565b6000602082019050919050565b60006112f582611101565b6112ff818561110c565b9350836020820285016113118561111d565b8060005b8581101561134d578484038952815161132e85826112c9565b9450611339836112dd565b925060208a01995050600181019050611315565b50829750879550505050505092915050565b6000602082019050818103600083015261137981846112ea565b905092915050565b6000604051905090565b600080fd5b600080fd5b600080fd5b600080fd5b7f4e487b7100000000000000000000000000000000000000000000000000000000600052604160045260246000fd5b6113d782611173565b810181811067ffffffffffffffff821117156113f6576113f561139f565b5b80604052505050565b6000611409611381565b905061141582826113ce565b919050565b600067ffffffffffffffff8211156114355761143461139f565b5b61143e82611173565b9050602081019050919050565b82818337600083830152505050565b600061146d6114688461141a565b6113ff565b9050828152602081018484840111156114895761148861139a565b5b61149484828561144b565b509392505050565b600082601f8301126114b1576114b0611395565b5b81356114c184826020860161145a565b91505092915050565b6000806000606084860312156114e3576114e261138b565b5b600084013567ffffffffffffffff81111561150157611500611390565b5b61150d8682870161149c565b935050602084013567ffffffffffffffff81111561152e5761152d611390565b5b61153a8682870161149c565b925050604084013567ffffffffffffffff81111561155b5761155a611390565b5b6115678682870161149c565b9150509250925092565b61157a816111fe565b82525050565b60006020820190506115956000830184611571565b92915050565b6115a4816111dd565b81146115af57600080fd5b50565b6000813590506115c18161159b565b92915050565b600080604083850312156115de576115dd61138b565b5b60006115ec858286016115b2565b925050602083013567ffffffffffffffff81111561160d5761160c611390565b5b6116198582860161149c565b9150509250929050565b6000602082840312156116395761163861138b565b5b6000611647848285016115b2565b91505092915050565b61165981611217565b82525050565b60006020820190506116746000830184611650565b92915050565b611683816111fe565b811461168e57600080fd5b50565b6000813590506116a08161167a565b92915050565b6000602082840312156116bc576116bb61138b565b5b60006116ca84828501611691565b91505092915050565b600060c08301600083015184820360008601526116f08282611184565b9150506020830151848203602086015261170a8282611184565b915050604083015184820360408601526117248282611184565b915050606083015161173960608601826111ef565b50608083015161174c6080860182611208565b5060a083015161175f60a0860182611223565b508091505092915050565b6000602082019050818103600083015261178481846116d3565b905092915050565b600082825260208201905092915050565b60006117a88261112d565b6117b2818561178c565b93506117c2818560208601611149565b6117cb81611173565b840191505092915050565b600060208201905081810360008301526117f0818461179d565b905092915050565b611801816111dd565b82525050565b600060208201905061181c60008301846117f8565b92915050565b6000602082840312156118385761183761138b565b5b600082013567ffffffffffffffff81111561185657611855611390565b5b6118628482850161149c565b91505092915050565b60006080820190506118806000830187611650565b8181036020830152611892818661179d565b905081810360408301526118a6818561179d565b90506118b56060830184611571565b95945050505050565b7f4e487b7100000000000000000000000000000000000000000000000000000000600052602260045260246000fd5b6000600282049050600182168061190557607f821691505b602082108103611918576119176118be565b5b50919050565b7f4f7267616e697a6174696f6e206e6f742072656769737465726564206f6e2d6360008201527f6861696e00000000000000000000000000000000000000000000000000000000602082015250565b600061197a60248361178c565b91506119858261191e565b604082019050919050565b600060208201905081810360008301526119a98161196d565b9050919050565b7f7265706f72744861736820726571756972656400000000000000000000000000600082015250565b60006119e660138361178c565b91506119f1826119b0565b602082019050919050565b60006020820190508181036000830152611a15816119d9565b9050919050565b7f6970667348617368207265717569726564000000000000000000000000000000600082015250565b6000611a5260118361178c565b9150611a5d82611a1c565b602082019050919050565b60006020820190508181036000830152611a8181611a45565b9050919050565b600081905092915050565b6000611a9e8261112d565b611aa88185611a88565b9350611ab8818560208601611149565b80840191505092915050565b6000611ad08284611a93565b915081905092915050565b7f54686973207265706f7274206861736820616c7265616479206578697374732060008201527f286475706c69636174652f74616d70657220617474656d707429000000000000602082015250565b6000611b37603a8361178c565b9150611b4282611adb565b604082019050919050565b60006020820190508181036000830152611b6681611b2a565b9050919050565b60008190508160005260206000209050919050565b60006020601f8301049050919050565b600082821b905092915050565b600060088302611bcf7fffffffffffffffffffffffffffffffffffffffffffffffffffffffffffffffff82611b92565b611bd98683611b92565b95508019841693508086168417925050509392505050565b6000819050919050565b6000611c16611c11611c0c846111fe565b611bf1565b6111fe565b9050919050565b6000819050919050565b611c3083611bfb565b611c44611c3c82611c1d565b848454611b9f565b825550505050565b600090565b611c59611c4c565b611c64818484611c27565b505050565b5b81811015611c8857611c7d600082611c51565b600181019050611c6a565b5050565b601f821115611ccd57611c9e81611b6d565b611ca784611b82565b81016020851015611cb6578190505b611cca611cc285611b82565b830182611c69565b50505b505050565b600082821c905092915050565b6000611cf060001984600802611cd2565b1980831691505092915050565b6000611d098383611cdf565b9150826002028217905092915050565b611d228261112d565b67ffffffffffffffff811115611d3b57611d3a61139f565b5b611d4582546118ed565b611d50828285611c8c565b600060209050601f831160018114611d835760008415611d71578287015190505b611d7b8582611cfd565b865550611de3565b601f198416611d9186611b6d565b60005b82811015611db957848901518255600182019150602085019450602081019050611d94565b86831015611dd65784890151611dd2601f891682611cdf565b8355505b6001600288020188555050505b505050505050565b7f4e487b7100000000000000000000000000000000000000000000000000000000600052601160045260246000fd5b6000611e25826111fe565b9150611e30836111fe565b9250828203905081811115611e4857611e47611deb565b5b92915050565b60006080820190508181036000830152611e68818761179d565b90508181036020830152611e7c818661179d565b90508181036040830152611e90818561179d565b9050611e9f6060830184611571565b95945050505050565b7f4f6e6c792061646d696e2063616e20706572666f726d2074686973206163746960008201527f6f6e000000000000000000000000000000000000000000000000000000000000602082015250565b6000611f0460228361178c565b9150611f0f82611ea8565b604082019050919050565b60006020820190508181036000830152611f3381611ef7565b9050919050565b7f4f7267616e697a6174696f6e20616c7265616479207265676973746572656400600082015250565b6000611f70601f8361178c565b9150611f7b82611f3a565b602082019050919050565b60006020820190508181036000830152611f9f81611f63565b9050919050565b7f496e646578206f7574206f662072616e67650000000000000000000000000000600082015250565b6000611fdc60128361178c565b9150611fe782611fa6565b602082019050919050565b6000602082019050818103600083015261200b81611fcf565b9050919050565b7f4e487b7100000000000000000000000000000000000000000000000000000000600052603260045260246000fdfea264697066735822122054f70159b9186bc1689c03dda53caf01524c77d4f2922cae04bdc293368b7faf64736f6c63430008130033",
  "linkReferences": {},
  "deployedLinkReferences": {}
}